:08000000803102288731F62F40
:1006F6001630210097000800F10071088331B223FB
:10070600080071082000CC007008CB0008007108B2
:100716002000D0007008CF00080071082000CE002D
:100726007008CD000800640080010131890B972B09
:1007360000346A30210099009801220096010800D1
:10074600C030240094002030950092010800240057
:10075600951370089100141CAE2B11080800F000C8
:100766002000111EB32B700823009A0008007008A1
:100776000319C02B22000E14080022000E100800D8
:10078600F100F0013A3071020318CF2B30307102BC
:10079600031CCF2BF001F00A700C080084312E24C4
:1007A600833183319C23833183317B2383318331AE
:1007B600A323833184310D240800F4007408043E19
:1007C600860087017008C03F7108C13F7408063E65
:1007D600860087017208C03F7308C13F0800F40114
:1007E600F501701CFA2B7208F4077308F53D013009
:1007F600F235F30D890BFB2B0130F136F00C890B2A
:10080600002C70087104031DF42B7508F1007408A0
:10081600F0000800083023009F0080309D0024303F
:100826009E0067309B009C010030F0000030F10014
:1008360083318A2384310030F0000030F1008331A7
:10084600902384310030F0000030F100833184239E
:100856002000C2010800220090018F018C018D0149
:100866008E010F3021009000FF308C00FF308D008C
:1008760096308E00FF308F00FF3023008F003F3010
:100886008D00073090003F308C00240090018D01D0
:100896002100951722009D010800780879040319A4
:1008A600772CFD01FD0AF91B622C0130F835F90D94
:1008B600890B592C0130FC007C08FD07562C790861
:1008C6007B02031D682C78087A02031C6E2C7808BC
:1008D600FA027908FB3B0130F936F80C890B6F2CCC
:1008E6000130FD02031D622C7B08F9007A08F8002E
:1008F6000800F501F601700871040319AB2CF70125
:10090600F70AF11B902C0130F035F10D890B872C7D
:100916000130F4007408F707842C0130F535F60D24
:10092600890B912C71087302031D9B2C70087202AF
:10093600031CA22C7008F2027108F33B75140130F7
:10094600F136F00C890BA32C0130F702031D902C15
:100956007608F1007508F0000800F601F11FBA2CC0
:10096600F009F109F00A0319F10AF601F60AF31F74
:10097600C52CF209F309F20A0319F30A0130F4004F
:100986007408F606F701F801700871040319F42CCF
:10099600F501F50AF11BD92C0130F035F10D890B63
:1009A600D02C0130F4007408F507CD2C0130F73552
:1009B600F80D890BDA2C71087302031DE42C7008FC
:1009C6007202031CEB2C7008F2027108F33B7714D9
:1009D6000130F136F00C890BEC2C0130F502031DC9
:1009E600D92C76080319FC2CF709F809F70A03191C
:1009F600F80A7808F1007708F0000800FB00FF30DD
:100A0600F1007108F9007B08860087010030C03FBD
:100A1600C13FC23FC33FF0017B08063E8600870107
:100A2600413F8A00403F0A0085310330F1007108DA
:100A3600FA00FA1B382D7908F1007108F0007B08DE
:100A4600043E86008701413F8A00403F0A00853107
:100A5600F2007A08753E8600870172088100FF3031
:100A6600F1007108FA07FA1F1E2DF001F00A7B0843
:100A7600063E86008701413F8A00403F0A008531D5
:100A8600753086008701403FF100413FF200423F4A
:100A9600F300433FF4007B08860087017108C03FDE
:100AA6007208C13F7308C23F7408C33F0800833110
:100AB600D1238531AA30F0000330F100BA30F200BC
:100AC6000330F30043308331E02385313430200096
:100AD600A7008830A8004308BA004408BB004508B0
:100AE600BC004608BD001030BD36BC0CBB0CBA0CB1
:100AF600890B772D3D08AC003C08AB003B08AA00EB
:100B06003A08A90086312A2685312E302000A70012
:100B16008830A800FF304305A900FF304405AA002D
:100B260000304505AB0000304605AC0086312A266C
:100B3600853111302000A7008830A8004330853168
:100B4600BB2585317D082000AA007C08A9008631D6
:100B56002A26853103302000BB008A30BA00553082
:100B6600890BB32DBA0BB32DBB0BB32D0032692DF8
:100B76002000A6002608853101258531200026089B
:100B860086008701403FA000413FA100423FA200EE
:100B9600433FA300A31FFE2D260886008701403F82
:100BA600A000413FA100423FA200433FA3001230F4
:100BB600A336A20CA10CA00C890BDB2DFF3020055F
:100BC600A4003F302105A500FC30F000FF30F10005
:100BD6002508A1002408A000A009A109FF302005CE
:100BE600A2003F302105A3002208013EF20000309A
:100BF600233DF3001E2E260886008701403FA000F5
:100C0600413FA100423FA200433FA3001230A3365A
:100C1600A20CA10CA00C890B0A2EFF302005A40003
:100C26003F302105A5000430F0000030F100250812
:100C3600F3002408F2008431B02471082000A500D6
:100C46007008A4002508FD002408FC0008002930CF
:100C56002000AD002D08B20020002808AE002708AD
:100C6600AD00A70A0319A80A2D0884002E088500DE
:100C76000008AF002F08B90039080319080025300D
:100C8600390603194B2E390883317F2386312F2EDF
:100C96002000B701B801B601552E36150130A70759
:100CA6000030A83D27088400280885000008303A4F
:100CB6000319502E5E2E2708840028088500000898
:100CC6008331C3238631031C9D2E2000B701B80152
:100CD6000A30F0000030F10020003808F300370831
:100CE600F2008331F223863171082000B8007008C3
:100CF600B70027088400280885000008D03EAD000C
:100D0600FF3003180030AE002D08B7072E08B83D97
:100D16000130A7070030A83D270884002808850071
:100D260000088331C3238631031C9D2E6B2E2000C1
:100D3600B617BB2E20002808AE002708AD00A70A6C
:100D46000319A80A2D0884002E0885000008B9009A
:100D5600003A0319F52F583A03199A2E3C3A03190B
:100D6600BB2E0D3A0319BB2E113A03199A2E2F2EBC
:100D76002000B61BD52E320886008701403FB400FE
:100D8600413FB5000230AD002D08B207B51F252F33
:100D96000330AD002D08B604B409B509B40A031929
:100DA600B50A252F320886008701403FB400413F2F
:100DB600B5000230AD002D08B207252FB901B90ADA
:100DC6000530390603192E2F3908AD00AE01AD35B1
:100DD600AE0D1C302D07840088302E3D8500003F67
:100DE600AF00013FB00030083502031DFC2E2F086E
:100DF6003402031C2E2F0130AD002D08B907E32E57
:100E0600B901B90A0430390603192E2F3908AD0085
:100E1600AE01AD35AE0D26302D07840088302E3D4F
:100E26008500003FAF00013FB00030083502031DCA
:100E36001E2F2F083402031C2E2F0130AD002D0863
:100E4600B907052F36088039003A0319E12E803A92
:100E56000319032F2E2F3708380403193A2F3608A3
:100E6600033903193A2FFF30B707FF30B83D390869
:100E7600AD00AE01AD1BAE032E08803AAF003808B8
:100E8600803A2F02031D492F37082D020318562FCB
:100E960020003908AD00AE01AD1BAE032D08B70228
:100EA6002E08B83B592F2000B701B801361D722F06
:100EB600360803390319632F2D3083317F2386319A
:100EC60020003708380403198B2F303083317F23F5
:100ED6008631FF302000B707FF30B83D642F370852
:100EE60038040319832F203083317F238631FF3066
:100EF6002000B707FF30B83D37083804031D762FAA
:100F06003608033903198B2F2D3083317F23863121
:100F160020003908AD002D08B300E32F0A30F80091
:100F26000030F9003308AD00AE01AD35AE0D1C3012
:100F36002D07840088302E3D8500003FF000013FDC
:100F4600F1003508F3003408F20084317C24863140
:100F56007108FB007008FA00843150248631780845
:100F6600303E2000AF002F08DE2F3308AD00AE0163
:100F7600AD35AE0D26302D07840088302E3D850018
:100F8600003FF000013FF1003508F3003408F2009D
:100F960084317C24863170080F392000AF002F0879
:100FA600B1003108003E840088300318013E8500F8
:100FB6000008AD002D08B900390883317F2386313A
:100FC600FF302000AD002D08B307330A03192F2E7A
:100FD60036088039003A0319912F803A0319B82F41
:100FE600DF2FDF2F08003E308400003085000D30F3
:100FF60083319623200085315A2D303431343234F2
:10100600333434343534363437343834393441347F
:101016004234433444344534463400342034543462
:1010260065346D3470342034253464340D340A3418
:101036000034013400340A34003464340034E834B3
:1010460003341034273401340034103400340034AF
:1010560001340034103425343034343458342034D8
:0C10660000342534303434345834003465
:020000040001F9
:04000E00E4FFFFFE0E
:00000001FF
